Y392655210443068415819MAHF8402066Q2MAHF840206MSPXRL07MAXIMO$HERNANDEZ$FELIPA                           10170520170009852SINCLAVE                   00000000 00000000
Y392655210410170016983LAPP000116CV4LAPP000116HSPRLRA8LARA$PALACIOS$PRIMITIVO                           10230520170010550SINCLAVE                   00000000 00000000
Y392655210443139526669RORD951227ER8RORD951227MNLBNV04ROBLEDO$RENTERIA$DEVANY FERNANDA                  10130620170010550SINCLAVE                   00000000 00000000
Y392655210443058907338MOCE890205MG1MOCE890205HNLRRN07MORALES$CORTEZ$ENRIQUE                            10130620170010550SINCLAVE                   00000000 00000000
Y392655210443987503281SALD750731PG1SALD750731MNLNPN07SANDOVAL$LOPEZ$DIANA NANCY                        10130620170010550SINCLAVE                   00000000 00000000
Y392655210443997611421CUBE760418BH6CUBE760418HNLRRF09CRUZ$BORREGO$EFREN JACOB                          10130620170104520SINCLAVE                   00000000 00000000
Y392655210443099244212HELA920926QL6HELA920926MNLRND01HERNANDEZ $LUNA$ADRIANA BERENICE                  10150620170014103SINCLAVE                   00000000 00000000
Y392655210460907397255VISM730721HK3VISE730721MCLLRL05VILLANUEVA$SUAREZ$MARIA ELIAZAR                   10190620170010550SINCLAVE                   00000000 00000000
Y392655210432866580015TOSF650205NH9TOSF650205HCLRNL09TORRES$SANCHEZ$FELIPE DE JESUS                    10200620170010550SINCLAVE                   00000000 00000000
Y392655210410179520001ROGE950905HR5ROGE950905HNLSRR06ROSALES$GARCIA$ERIK GERARDO                       10200620170010550SINCLAVE                   00000000 00000000
Y392655210443079089736NACR900205E63NACR900205HNLVSB09NAVARRO$CASTILLO$ROBERTO GERARDO                  10190620170009852SINCLAVE                   00000000 00000000
Y392655210447129407962FOTF941123M93FOTF941123HNLLVR02FLORES$TOVAR$FERMIN                               10270620170010550SINCLAVE                   00000000 00000000
Y392655210417170060291ROSF000512GC6ROSF000512MNLDRTA9RODRIGUEZ$SARABIA$FATIMA BERENICE                 10110720170010550SINCLAVE                   00000000 00000000
Y392655210403159991466TATJ9901247T2TATJ990124HNLPRV04TAPIA$TORRES$JAVIER ELIUD                         10180720170010550SINCLAVE                   00000000 00000000
Y392655210443129503645BIVB951115L53BIVB951115HNLRLR09BRISE#O $VALLES$BRANDON ALEJANDRO                 10180720170010550SINCLAVE                   00000000 00000000
Y392655210410179980692VASE990323663VASE990323HNLLNR03VALENCIANO$SAENZ$ERIK IVAN                        10180720170010550SINCLAVE                   00000000 00000000
Y392655210460159603046VALG961023DM9VALG961023HSPZPR02VAZQUEZ$LOPEZ$GERMAN                              10180720170010550SINCLAVE                   00000000 00000000
Y392655210418169660489GOSR960910C51GOSR960910HNLNLC02GONZALEZ$SALAZAR$RICARDO                          10250720170010550SINCLAVE                   00000000 00000000
Y392655210443967859364TECS780917MX3TECS780917HNLRNL03TREVI#O$CONTRERAS$SALVADOR                        10280820170010550SINCLAVE                   00000000 00000000
Y392655210443786103598TORA610407JC5TORA610407HNLRDN09TORRES$RODRIGUEZ$JOSE ANDRES                      10280820170010550SINCLAVE                   00000000 00000000
Y392655210482129207773DIMC921208CJADIMC921208HCSZNL01DIAZ$MENDEZ$CALIXTO                               10280820170010550SINCLAVE                   00000000 00000000
Y392655210438149368060LOOA930311912LOOA930311HCSPRM08LOPEZ$ORANTES$AMBROSIO                            10280820170010550SINCLAVE                   00000000 00000000
Y392655210443026202358MAHE621029SB3MAHE621029MNLRRS07MARTINEZ$HERNANDEZ$ESTHELA                        10280820170010550SINCLAVE                   00000000 00000000
Y392655210409008115009TERC811128KB7TERC811128MSPRNR03TREJO$RANGEL$CORA                                 10280820170010550SINCLAVE                   00000000 00000000
